:020000040022D8
:100000002DE9F0412C480024264684602B4800F05E
:100010005FF82B4D6E626E6300F03DFE01F05CFBFD
:10002000012708B1AF7001E000F006FF01F000F910
:1000300001F038FF00F09FFD4FF4C8002E63C0F8B8
:10004000947087601F484FF00F1101600168C94329
:100050004907FBD11C494FF4457008801B4941F208
:100060001E2008604FF44810016841F4805101607F
:100070000AE000F09FFC04466869012819D00228B4
:1000800002D0002001F0B8F9002CF2D00C492879F8
:10009000491C583008700A4800220121401C01F018
:1000A000A9FFBDE8F041002201231146501E00F0D7
:1000B00028B84020E6E7000000903200042B220020
:1000C0004C232200B80432006C153200AC8333009C
:1000D0008546704700470000FE490968496881422B
:1000E0000ED1FD480121C160FC490A6822F40012CA
:1000F0000A604FF4A06101604FF003018160FEE7E8
:10010000704710B500204FF47A51401C8842FCD350
:1001100003B90022F248016821F02201016042F097
:1001200001031846FFF7D8FFBDE810401846FFF757
:10013000D1BF10B500F0BBFE38B101F0D1FA20B14B
:1001400001F057FA08B1012010BD002010BD70B5B4
:10015000E44E0024A6F10F050DE0A878315D0028DB
:10016000E869204402D001F0BDFA01E000F0BDFED4
:10017000002804D0641C286A8442EEDB012070BD94
:1001800030B5002306E0C45CCD5CAC4201D0002059
:1001900030BD5B1C9342F6DB012030BD10B5D14C65
:1001A0000F3CE2692AB1226A002A12DB032A10D02E
:1001B00002E00022C4E90702CA4B9954E1691144E4
:1001C000814212D1521CC8491846FFF7D9FF50B9D5
:1001D00001E0002010BD226AC349521CC91CC1485D
:1001E000FFF7CEFF08B1012000E000200028206AC0
:1001F00003D0401C2062012010BD002801DDFFF764
:10020000A6FF4FF0FF302062E3E770B50D46B54E14
:10021000044600F1807101200F3EB1F1807F12D2BF
:10022000B07129462046FFF7B9FFD0B9B07829460A
:100230000028204603D0BDE8704001F053BABDE865
:10024000704000F052BEA4F5A001B1F5801F06D2A7
:10025000B07129462046BDE8704000F0FEBF257011
:100260002078012070BD70B505460E462EE001F0E5
:1002700098FEA0F13001092901D800010EE0A0F19B
:100280004101052903D80001A0F55C7006E0A0F14A
:10029000610105291ED80001A0F5AE60C4B201F0CD
:1002A00080FEA0F13001092901D80C430BE0A0F138
:1002B0004101052901D8373804E0A0F16101052981
:1002C00008D85738044305F8014B761E002ECED1CE
:1002D000012070BD002070BD38B5824C44F6206509
:1002E0000F3C1CE02581E0784C281DD00121684698
:1002F000FFF7B9FF002816D060799DF80010084478
:100300006071E06AFFF781FF00280CD0E06A401CB2
:10031000E0626089401E6081206B401C2063608920
:100320000028DFD1012038BD01F03BFE8DF8000030
:10033000E2E710B501F035FEFC2806D101F031FEF0
:10034000684C0F3C0428608101D2002010BD01F0F0
:1003500028FEE06201F025FEE16A41EA0020E06249
:1003600001F01FFEE16A41EA0040E06201F019FE7F
:10037000E16A41EA0060E0626089001F608101205B
:1003800010BD10B501F00DFEFC2824D101F009FECE
:10039000062820D101F005FE01F003FE01F001FE68
:1003A000504C0F3CA06101F0FCFDA16941EA002026
:1003B000A06101F0F6FDA16941EA0040A06101F0F1
:1003C000F0FDA16941EA0060A0614849401E8842F1
:1003D00001D2012010BD002010BD00B589B08446B7
:1003E0000E208DF8000008208DF8010001208DF806
:1003F0000200CC208DF80300FC208DF804000020C2
:100400008DF805000CF180706B46B0F1807F0ED244
:10041000344A0F3A9278002A0A46014603F1060050
:1004200002D001F063F90CE000F086FD09E0ACF5C4
:10043000A000B0F5801F0ED20A466146981D01F05B
:10044000E3F8002805D001220A21684601F0D2FD18
:10045000012009B000BD0020FBE710B501F0C9F88C
:10046000002813D0FFF773FE00280FD000F01FFD07
:1004700020B101F035F908B1012400E00024194849
:100480000F38807808B101F035F9204610BD70B5FD
:10049000FFF7E3FF002808D001F083FDFC2803D11B
:1004A00001F07FFD082801D0002070BD01F079FD2A
:1004B000044601F076FD44EA002401F072FD44EAAE
:1004C000004401F06EFD44EA006501F06AFD044657
:1004D0000EE0000008ED00E00090320000E100E0D6
:1004E000200436005B232200C0212200FF117A0085
:1004F00001F057FD44EA002401F053FD44EA0044B2
:1005000001F04FFD44EA00612846FFF766FFC0B2E4
:1005100070BD1CB50020019001F043FDFF2854D1AF
:1005200001F03FFD042850D101F03BFD044601F0ED
:1005300038FD44EA002401F034FD44EA004401F0AF
:1005400030FDFF4944EA006088423ED101F097FC4B
:10055000D0B303208DF80000BDF801004FF48051A6
:100560006FF30B00ADF80100BDF8020020F47F60CE
:100570001030ADF80200002001F032FC20B304225C
:1005800069464FF4017001F0D3FBE8B14FF480707D
:10059000ADF804009DF806004FF4407120F00F0004
:1005A00009308DF80600BDF80200C0F30710820084
:1005B000BDF80100C0F30B0001EB800001A901F0C0
:1005C000B7FB08B101201CBDFFE70020FBE710B519
:1005D00001F0E7FCFF2803D101F0E3FC012801D082
:1005E000002010BDD748807820B101F0DAFC01F07E
:1005F00075F803E001F0D5FC00F03DFC0028F0D0D8
:10060000012010BD10F180720ED3CE480023C361CB
:100610005B1E0362807810B1104601F069B869B9B9
:100620004FF4004000F0C8BCA0F5A002B2F5801F56
:1006300004D209B101F02BB801F016B800207047C0
:1006400010B501F0AEFCFF2803D101F0AAFC04288C
:1006500001D0002010BD01F0A4FCBA4CE06201F012
:10066000A0FCE16A41EA0020E06201F09AFCE16A44
:1006700041EA0040E06201F094FCE16A41EA006076
:100680000121E062FFF7BEFF0028E3D0012010BD8A
:1006900010B501F086FCAB4CFF2803D0207948B997
:1006A000012006E001F07DFC042805D0207908B97E
:1006B00002202071002010BD01F073FCE06201F007
:1006C00070FCE16A41EA0020E06201F06AFCE16A44
:1006D00041EA0040E06201F064FCE16A41EA006046
:1006E0009949E062884202D14FF4A000E062002103
:1006F000FFF788FF0028DED0012010BD9348016875
:1007000041F06001016091480C300168C907FCD0DC
:10071000704710B5FFF7A1FE00280AD001F041FC98
:10072000FC2805D101F03DFC864C0428608101D0F5
:10073000002010BD01F035FCE06201F032FCE16AFE
:1007400041EA0020E06201F02CFCE16A41EA00404D
:10075000E06201F026FCE16A012241EA0060794989
:10076000E0623831E078C87076480621383001F010
:1007700041FC0020E062FFF7C1FFE06AFFF7ACFC3C
:10078000E06A012300214268E262606AFFF7B9FC77
:10079000012010BD30B50C46C1B00E218DF80010FF
:1007A000FB2C02D9002041B030BD211D8DF8011075
:1007B00001218DF802104D218DF80310FC218DF8D8
:1007C000041000218DF8051000F180716B46B1F125
:1007D000807F0CD25B4822468078002803F1060017
:1007E00002D000F081FF0CE000F02DFB09E0A0F545
:1007F000A001B1F5801F07D201462246981D00F0E6
:10080000FAFE0028CFD008E0002104E05D1810F8BF
:10081000012BAA71491CA142F8D30122A11D6846EF
:1008200001F0E8FB0120BEE710B5FFF716FE002837
:1008300008D001F0B6FBFC2803D101F0B2FB05287B
:1008400001D0002010BD01F0ACFB3E4CE06201F095
:10085000A8FBE16A41EA0020E06201F0A2FBE16A44
:1008600041EA0040E06201F09CFBE16A41EA00607D
:10087000E06201F096FB0146E06ABDE8104089E7BE
:1008800070B5304804212830FFF7EDFC002876D001
:100890002C4C2C4D283420786178A378E2780144E0
:1008A0001344194469716881B4F80110002A49BAE7
:1008B000E96279D00026022A06D0042A18D0052A37
:1008C0002AD0012A4FD059E0C1BB022856D11D4879
:1008D00002212830FFF7C7FC002850D0207861782B
:1008E0006B7942181A4400036A7140EA011011E062
:1008F00021BB022842D1134802212830FFF7B3FC64
:1009000028B920786178084469790844687120889A
:1009100040BA0004686324E081B904282ED1094854
:1009200004212830FFF79FFC002828D02078617828
:10093000A2780144E0780244114409E01EE01EE080
:10094000EB00EC054C232200EFEEBEFC1C0436004D
:100950006A7911446971216809BA21F0FF010143E4
:1009600069636E8120E0014308D10121FA48FFF755
:100970007AFC002803D02078FF2801D0002070BD29
:10098000FFF76BFD0028FAD0F3492E20273900220B
:100990000870F1480121273801F02CFB00220123C7
:1009A0001146501EFFF7ADFB696BE86A0844E86228
:1009B000012070BD2DE9F041E74E283E0224307839
:1009C00040F001003070706910B1012806D012E0CB
:1009D00001F0FAFAF0704C280CD00CE001F0FDFAAE
:1009E000002847D001F0F0FAF0704C2802D0032024
:1009F0007061B6E074613078002500F080003070DE
:100A00007581D54C70691034032815D0C0B117D04A
:100A1000FFF78FFC00287DD0FFF75EFC00287AD01E
:100A200001207061FFF785FB002875D0F078E07039
:100A30000122062120467BE0002000F0DDFC7561EC
:100A4000F0780D284AD00A2848D03A2814D04D28EA
:100A500017D04E281AD0CE281DD05E2820D0E528E9
:100A600023D0BE2826D0CC2829D018282CD057280F
:100A700032D00F20BDE8F081FFF702FF38BB042021
:100A8000F8E7FFF7D1FE10BB0620F3E7FFF741FEC2
:100A9000E8B90720EEE7FFF7FBFDC0B90820E9E75A
:100AA000FFF7CEFD98B90920E4E7FFF790FD70B994
:100AB0000A20DFE7FFF72DFD48B90B20DAE7FFF743
:100AC000E6FC20B90C20D5E7FFF75BFC10B1706A9B
:100AD00028B108E00E20CDE78020307041E0708919
:100AE00008B1F06A70629C49F078273957281AD00B
:100AF0003A2817D0FF21FC27CE281CD05E281AD018
:100B0000E52818D0BE2816D018281ED04D2828D089
:100B1000CC2802E029E02AE02BE022D0ED2820D0EA
:100B20001520A7E72E2008708B48002201212738C6
:100B300001F060FA15E0E07087482171012206217A
:100B4000103001F057FA27710BE0E0708248012263
:100B50000621103001F04EFAB06901F00DFA10B123
:100B6000B561002086E7142084E7052082E7102085
:100B700080E711207EE730B5784B794C002108469C
:100B80000022C50702D083EA500000E04008521C52
:100B9000082AF6D344F82100491CFF29EFD930BDBB
:100BA0004FF448114FF0050C0968C90401D54FF006
:100BB0000A0C002305E062461100A2F10102FBD1FC
:100BC0005B1C8342F7D37047664900B50320486039
:100BD000002211461046C0F10F0342FA03F303F05E
:100BE000010383401943401C1028F4DB4FF44810E4
:100BF0001722026441649620FFF7D2FF5A48016829
:100C000021F0300141F01001016000BD57490A6830
:100C100042F080020A600A6822F080020A605149AC
:100C20004FF000024A60524B4B610A64514ACA605D
:100C3000514AB2FBF0F040F0807088604FF46410CD
:100C40008861704770B54FF44E14D4F86001C00647
:100C500019D445F6C050FFF7D9FFFFF7B5FF4FF4A1
:100C60004816306820F00F054448016841F007013C
:100C700001600A20FFF794FF45F4805030604FF484
:100C8000E13001F079F90020C4F83801C4F83C01E2
:100C9000C4F8D80270BD304930B42839002008713A
:100CA00001230B7044F620620A8101F10C024024FA
:100CB000147030245470312494702C320E2414702B
:100CC000042454709370FC23137150712C4A887063
:100CD00088711070421EC1E907022A49087030BCB1
:100CE000B0E74FF48012904209D36FF40011264B05
:100CF0000144994203D3A0F5A001914206D228B144
:100D0000411C03D0C00701D001207047002070476C
:100D10001F4910B51D4808600F492839087818B1D7
:100D200044F62060088110BD0889401E0004000CB4
:100D30000881F8D108495A2027390022087006484E
:100D40000121273801F056F900220123BDE81040A7
:100D50001146501EFFF7D5B9742322002083B8ED49
:100D6000E4232200001032006081330004013200CD
:100D7000171000010000020450C97FBBB804320004
:100D8000A42322008C232200FEDF01000024F400B3
:100D90000090320070B5054600244FF4FA6606E074
:100DA0000020401CB042FCD3FFF7B2FF641CAC42F1
:100DB000F6D370BD4FF44812106800F00F014FF4E5
:100DC0004E10D0F86031C3F30113012B24D0D0F8BA
:100DD000600110F0300F02D04BF6803001E045F694
:100DE000C0501268D20414D4052913D2DFE801F0F0
:100DF000030507090B00022106E0032104E004219A
:100E000002E0062100E008210844A0F1010090FB67
:100E1000F1F07047012070471068C00401D5044804
:100E200070470448405C4FF47A7110FB01F0704742
:100E300000770100C621220010B500F0FEF87A49C3
:100E40000020087010BD38B50546080A8DF800006E
:100E500014468DF80110A0220221684600F0CEF958
:100E6000012806D1A0222146284600F0D0F9012809
:100E700000D0002038BD08B500F0F7F801220021AD
:100E80006846FFF7E0FF08BD70B500244FF4FA652F
:100E900004E0641CAC4201D1002070BDA0220221FC
:100EA000002000F0ABF90328F3D0012070BD3EB55F
:100EB0005D4C2178B9B160680223020A8DF80820E0
:100EC0008DF809000122A020CDE9000202AA04F158
:100ED000080000F04CF903284FF0000002D0207009
:100EE000FFF7D2FF3EBD01203EBD2DE9F0414E4E41
:100EF00004460D463078002740B171680844A0428E
:100F000005D0FFF7D4FF002814D03770746046492D
:100F1000307808310D54401CC0B230707168014403
:100F2000090701D0062804D1FFF7C1FF002801D02E
:100F300037700120BDE8F0812DE9FE430746080A1D
:100F40008DF8000015468DF801104FF0FF34A022F7
:100F50000221684600F052F9012802D00020BDE8C5
:100F6000FE830DF10408DFF8C49019E0082D01D9C3
:100F7000082000E02846C6B2A022314601A800F0B1
:100F800046F9002041464A4607E00B5C6340DBB26D
:100F9000401C52F8233083EA1424B042F5D3AD1B31
:100FA000002DE3D1E0433870010A7970010CB9706B
:100FB000000EF8700120D2E72DE9F84F0546FF2119
:100FC0000020FFF792FF012444F62066184F4FF0EF
:100FD000FF08A1464FF0CE0A20E02046641C002105
:100FE000FFF783FF00281CD0600600D13E80A005DB
:100FF00014D1012200216846FFF725FF002810D0F8
:101000009DF8000060B18DF800808DF801908DF89A
:1010100002A001220321684600F0ECFFAC42DCD3C1
:101020000120BDE8F88F00008C232200E423220079
:1010300054232200401EFDD270477948816921F077
:10104000770181610168774A01EA0201764A41EA43
:10105000020101604FF459114FF00000C86173495B
:1010600048704FF010000870704770490A7822F0FD
:10107000300202430A70704710B54FF45911C86925
:10108000C0B2820717D50022CA61400701D50320EC
:1010900010BD664AD07860B10020536806E001EBCD
:1010A000800494F830411C54401CC0B2D478A04253
:1010B000F5D3012010BD002010BD10B5002404E0C0
:1010C000641C600701D1FFF723FEFFF7D5FF00285E
:1010D000F6D010BD10B54FF45910C069C00705D047
:1010E000FFF7EBFF514988700120487010BDF0B543
:1010F0004FF45916DDE9054C4FF0000EC6F81CE020
:10110000346053B1002406E0155D06EB8407641CCF
:1011100087F83050E4B29C42F6D35FEA0C02DFF865
:101120000CC105D0CA18D4B28CF803E0002213E039
:10113000CCF804008CF803100C4601207BB143EA84
:101140000110C4B203200AE0D718855C06EB8707BC
:10115000521C87F83050D2B28A42F5D300209CF856
:10116000001074610843B0610120F061F0BD2DE909
:10117000F04380462DED028B83B00D4616461F4688
:101180009DED0C8ADDF83490FFF7A4FF2EE00821D6
:10119000B9F1010F02D1C7F10800C1B28D4200D2EE
:1011A000E9B28DED008A0C463B4632464046CDF80A
:1011B0000490FFF79CFFFFF780FF012819D1281B3F
:1011C000A04485B297B1781EC0B2315C2144C9B247
:1011D0003154A1420AD207E0401EC0B2315C491C22
:1011E00011F0FF01315401D10028F5D1002DCED1ED
:1011F000012003B0BDEC028BBDE8F0831CB50123D8
:10120000CDE9002300231A46FFF7B1FF1CBD1CB532
:101210000023CDE900231A46FFF7A9FF1CBD0000FB
:1012200074003200FFFFC0C000000A0A9C232200A5
:1012300010B50020FB4A01461154401CFF28FBD981
:10124000F94C217000F0EBFD2063E062BDE8104036
:1012500000F015BEC0F3D30070472DE9F05FA0F594
:10126000A007DFF8C4930E464846D9F804107D0A5B
:101270000A460069DFF8B4B3C7F308044FEA173829
:10128000491C4FF0010A0BD0AA4240D1A8B30BF879
:101290000460D9F82000844201D9C9F82040A8E0B0
:1012A0004FF4007198B1E14800F00FFF0BF80460B3
:1012B000C9F82040C9F80CA0C9F81850C9F828404E
:1012C000D84CC9F8045014F8080070B191E0D8481F
:1012D00000F0FBFED6480655C9F81C40C9F808A026
:1012E000C9F81450C9F82440EAE7380B000300F0AD
:1012F00089FCFF2004F808007BE0FFE7CC48065596
:10130000D9F81C00844274D9C9F81C4071E050B16E
:10131000D9F80800F0B3D9F81420C24FC2F3D300B3
:10132000385CC0B341E0D9F80C0030B3D9F81820CC
:10133000BC4FC2F3D300385C40B9500200F062FCED
:10134000D9F81800FF22C0F3D3003A54D9F820107E
:10135000D9F82800D9F81830091A091D21F003021C
:101360000BEB000100EB432000F0B3FC002841D060
:101370004FF40071AD4800F0A8FE0BF80460C9F806
:101380002040C9F80CA0C9F810A0C9F81850C9F835
:1013900028402CE020E0FFE7500200F033FCD9F8B1
:1013A0001400FF22C0F3D3003A54D9F81C10D9F826
:1013B0002400D9F81430091A091D21F003029C49B0
:1013C000014400EB432000F084FC002812D04FF4CD
:1013D0000071974800F079FE95480655C9F81C4001
:1013E000C9F808A00020C9F82440C9E90405C9F8D3
:1013F00004500120BDE8F09F2DE9F05F8A4EC01C2B
:1014000020F00304DFF824B2864F30694FF0010862
:101410004FF0030A4FF0FF09002548B1B0680028DB
:1014200073D07069C0F3D301795C00295BD062E0AE
:10143000F06888B3B069C0F3D301795C39B9400270
:1014400000F0E0FBB069C0F3D30007F8009044B1AE
:10145000B16A306A6218824209D3401A401CF560B2
:1014600008E0F560B16A306A401A401C02E020468C
:10147000C6F80CA0C01C20F00302B06AB3690BEBE5
:10148000000100EB432000F024FC00287ED0F0682F
:1014900020B1B06A2044B06214B17CE0306AFAE74F
:1014A000B068002877D07069C0F3D301795C39B98E
:1014B000400200F0A7FB7069C0F3D30007F800906A
:1014C000F169706A7369091A091D21F0030258490C
:1014D000014400EB432000F0FCFB00288AD0B560FB
:1014E000F561756254E0400200F08CFB7069C0F356
:1014F000D30007F800904CB1716AF069621882421B
:101500000AD3401A401CB56009E01AE0B560716A60
:10151000F069401A401C02E02046C6F808A0C01C32
:1015200020F003024249706A7369014400EB4320D2
:1015300000F0CFFB002829D0B06820B1706A2044A9
:10154000706214B127E0F069FAE7F06818B3B06987
:10155000C0F3D301795C39B9400200F053FBB069A4
:10156000C0F3D30007F80090316AB06AB369091A72
:10157000091D21F003020BEB000100EB432000F0FA
:10158000A8FB002802D0F560356200E004E0B562F7
:101590004FF0FF30706040462CE770B505460E46B0
:1015A00002EB4200234901E0401E0ED00A6A1207F6
:1015B000FAD4052400F06AFA002806D001E0641E7F
:1015C00004D02868B042FAD1012070BD002070BD5F
:1015D00070B504460D4600F063FA16488461C56193
:1015E000016A0907FCD429462046BDE87040642200
:1015F000D3E701207047034610B5C1F31300194625
:1016000000F076FBC0B210BD2DE9F04106460D4654
:1016100017464FF0FF3400F039FA002822D000209E
:10162000054914E0082B2200A4232200082E2200E2
:10163000082C220000404000E423220015F8012B72
:101640006240D2B2401C51F8222082EA1424B842EF
:10165000F4D3E0433070010A7170010CB170000ED8
:10166000F0700120BDE8F08110B51949002000F0AC
:10167000F4FA50B10020002806D00021154BFF22BB
:101680005A54491CFF29FBD910BD0120F3E710B5BE
:101690000446C0F3130000F0B5FA78B10020C4F39B
:1016A0000731002809D00B4A01F0070402EBD102F0
:1016B00001211378A1400B43137010BD0120EEE708
:1016C00010B5C0F31300042200F012FBC0B210BD2D
:1016D000FCFF0F00082B22000020704701207047FC
:1016E000012070470020704700207047002070479D
:1016F00000207047012070475A2801D25A2002E08A
:101700007D2800D97D20F8494A6C22F001024A6404
:101710000A68A0F15A0022F03F0242EA00020A6081
:10172000486820F007004860486C40F001004864B9
:101730007047EE490A6802430A607047EB490A683D
:1017400082430A607047E94A916821F0030101432E
:1017500091607047E54A9168000721F0F00141EA85
:10176000106090607047E148816880687047DF488A
:10177000816880687047DD4A91684FF0E06321F02E
:10178000E06103EA0060084390607047D74A9168BF
:101790004FF0405321F0405103EA0070084390603D
:1017A0007047D24A916C00F0070021F0070108430E
:1017B00090647047CD49886C20F00F0088647047B2
:1017C000CA4AD16CC0F30D0001F0C0210843D064B7
:1017D0007047C64A106521F0784050657047C34A8B
:1017E0009065D1657047C14A106651667047BF4920
:1017F000C0B2C8607047BD49C0B208617047BB49FC
:1018000000F0030008627047B84A9169C1F3130100
:1018100041EA005090617047D0F800C099402CEA2E
:10182000020C41EA0C01016070474FF4002085E78B
:10183000AE4A116821F00F01014311607047AC4AB4
:1018400009B1506003E05068401E506001D0002094
:101850007047012070472DE9F043052802D9002088
:10186000BDE8F08300EB4001A24DA04E01EB001457
:10187000243655F824100023FF223046FFF7CCFF12
:1018800005EB840408234FF47F4230466168FFF77C
:10189000C3FF10234FF47F023046A168FFF7BCFF5F
:1018A0004FF07F4518232A463046E168FFF7B4FF22
:1018B0004FF6FF78361D0023424630462169FFF778
:1018C000ABFF14232A1130466169FFF7A5FF40F6EC
:1018D000FF79361D00234A463046A169FFF79CFF79
:1018E0000C234FF470423046E169FFF795FF4FEA51
:1018F000094710233A463046216AFFF78DFF361D0F
:1019000000234A463046616AFFF786FF0C232A13FC
:101910003046A16AFFF780FF0023774A301DE16A55
:10192000FFF77AFF714E00233836EA433046216BC9
:10193000FFF772FF18232A463046616BFFF76CFFF2
:1019400000235A1E301DA16BFFF766FF674D002371
:10195000403542462846E16BFFF75EFF10233A46CA
:101960002846216CFFF758FF00234A46281D616C6A
:10197000FFF752FF5D48002341F6FF724C30A16C27
:10198000FFF74AFF01206BE759495C488A6890429B
:1019900001D101207047886059490A6842F4002249
:1019A0000A600A6842F008020A6050498A6842F0F8
:1019B00001028A6045F6C0525249904206DCB0EB03
:1019C000A2000FD0B0EBA20007D108E0A1F5BA4108
:1019D000C03906D0A1F53B418039042002E0012046
:1019E00000E0032037E730B5414C2078012828D0AB
:1019F0007820FFF781FEFFF7C7FF4FF40020FFF7C5
:101A00009DFE3A4B5868000312D40B20FFF710FFDD
:101A10003D4D01212846FFF712FF04E00021284632
:101A2000FFF70DFF10B958680003F7D50D2001E04E
:101A3000207808B9FFF7FCFE012020705868C0F339
:101A4000C04030BD2A4810B5007801281BD00820BE
:101A5000FFF7EEFE2C4C01212046FFF7F0FE234B52
:101A600004E000212046FFF7EAFE10B9586880071D
:101A7000F7D10020FFF7DCFE7820FFF73DFE586825
:101A8000800701D0002010BD012010BD00B5FFF778
:101A9000AAFF002803D00120FFF7CAFE012000BDE5
:101AA00000B5FFF7A0FF002806D00220FFF7C0FE18
:101AB0000E4900200862012000BD70B5044615469D
:101AC00028440E46B0F5801F02D94FF0FF3070BD9C
:101AD000E5B1FFF7DBFFE0B12A4604F5A00130468F
:101AE00000F0AEFA002070BD5400640000404000D9
:101AF000D8232200D0212200FFFF0F000077010031
:101B0000B804320040190100004C1D006FF00900BC
:101B1000E9E76FF00300E6E770B504460E461546A8
:101B2000800702D06FF00100DDE7A80702D06FF058
:101B30000200D8E76019B0F5801F02D94FF0FF30DE
:101B4000D1E755B1FFF7A2FF50B12A4604F5A00135
:101B5000304600F075FA0020C5E76FF00900C2E7D3
:101B60006FF00300BFE7F0B506460C461546800748
:101B700002D06FF00100F0BDA80702D06FF00200A4
:101B8000F0BD7019B0F5801F02D94FF0FF30F0BDE5
:101B90003DB1FFF785FF38B10023DFF8F8C2BE4F33
:101BA00020E06FF00900F0BD6FF00400F0BDF01808
:101BB000B861E178206861F31F60F8610121604637
:101BC000FFF73DFE09E000216046FFF738FE20B137
:101BD000FFF75CFF6FF00600F0BD386A0007F2D433
:101BE0001B1D241DAB42E2D3FFF750FF0020F0BDC8
:101BF00000B5FFF7F8FE002803D00320FFF718FE1A
:101C0000012000BD10B5010502D06FF0070010BD26
:101C1000B0F5801F02D94FF0FF3010BD9E4C6061BF
:101C2000FFF7E6FF28B19B4B01211846FFF707FE9F
:101C30000CE06FF0050010BD00211846FFF7FFFD16
:101C400020B1FFF723FF6FF0060010BD606840076A
:101C5000F2D4FFF71BFF002010BD30B5044609B1D8
:101C6000651809E06FF0090030BD2046FFF7CAFF94
:101C70000028F9D104F58054AC42F6D3002030BDE1
:101C8000864810B5007801280CD0FFF7ACFE60B193
:101C90000C20FFF7CDFD01217E48FFF7D0FD804CE1
:101CA0007D4B0FE06FF00A0010BD6FF0080010BD13
:101CB00000212046FFF7C3FD20B1FFF7E7FE6FF0DC
:101CC000060010BD58684007F2D4FFF7DFFE002081
:101CD00010BD10B5FFF747FF044670480078012893
:101CE00001D1FFF7D3FE0CB1002010BD012010BDC3
:101CF00010B5FFF7E2FE08B1002010BD012010BDB5
:101D000010B5FFF7AAFF044664480078012801D106
:101D1000FFF7BCFE0CB1002010BD012010BD08442F
:101D2000B0F5805F02D94FF0FF3070470020704758
:101D300010B58C46044613461146FFF7F0FF08B174
:101D4000002010BD1020FFF7F4FC1A466146204623
:101D5000FFF709FF40B100241020FFF7EFFC4F49C7
:101D60000978012902D003E00124F5E7FFF78EFE90
:101D7000204610BD10B50C46844613461146FFF7A9
:101D8000CEFF08B1002010BD1020FFF7D2FC1A468C
:101D900021466046FFF791FE28B100231020FFF78F
:101DA000CDFC184610BD0123F8E710B50C4684465B
:101DB00013461146FFF7B3FF08B1002010BD2020E5
:101DC000FFF7B7FC1A4621466046FFF776FE28B1BA
:101DD00000232020FFF7B2FC184610BD0123F8E7CE
:101DE00010B503460C46FFF79AFF08B1002010BD5E
:101DF0001020FFF79EFC21461846FFF72EFF40B14A
:101E000000241020FFF79AFC24490978012902D008
:101E100003E00124F5E7FFF739FE204610BD4FF43B
:101E2000A00070471CB50822694640F60460FFF721
:101E3000BCFF0098C107184805D10099C1F34701BC
:101E400041F48071C1600199C90705D10199C1F3BD
:101E5000470141F4807101611CBD10B54020FFF7BE
:101E600068FC0E4800218160007808B1012010BD97
:101E7000FFF78AFD0446FFF709FE204010BD10B5AC
:101E8000FFF7EBFF0549044600200870FFF7CAFF83
:101E9000204610BD004C1D0000404000D823220009
:101EA000003075006248016841F04001016001683E
:101EB00041F020010160016841F0020101605C49CC
:101EC000002010310860704730B55A4CA04201D84C
:101ED000240100E0584CB4FBF0F010280CDBC417D0
:101EE00000EB1474251124F00F04041B186820F073
:101EF000080040F0800006E005461868002420F045
:101F0000800040F008001860C5F58070106004EB98
:101F1000D4704010221A42EA0010086030BD4449D3
:101F2000086820F023020A6070471EB5404C226802
:101F300001F0230122F023020A4300926B4602AA19
:101F400001A9FFF7C1FF3A4902981C390860091F2F
:101F500001980860009820601EBD4FF448110122CE
:101F6000C1F8BC20334B984201D8022000E0012088
:101F700041F8B40F4A60704784462D4810B5001DE3
:101F80000168C1F381010229FAD1FFF7C8FF0446B5
:101F90006046FFF7E2FF21466046FFF7C6FF0120DB
:101FA00010BD70B5224901200C31086008254FF49E
:101FB0005814FEF7ADFEC4F88450D4F8840000072E
:101FC000F7D4E069C0B270BD10B5FFF7EAFF012891
:101FD00002D1BDE81040E4E710BD154901200C31E5
:101FE0000860164808210160006840F3C00000F155
:101FF0000100704730B502244FF45813C3F88440F1
:10200000D3F88450AD07F9D52AB10425DD6102E08B
:1020100010F8012BDA610A00A1F1010189B2F7D1B0
:10202000C3F88440D3F884008007F9D530BD0000A0
:102030002004360060E31600006CDC0284003600E9
:10204000032A40F2308010F0030C00F0158011F8E4
:10205000013BBCF1020F624498BF11F801CB00F8BC
:10206000013B38BF11F8013BA2F1040298BF00F810
:1020700001CB38BF00F8013B11F0030300F04780AB
:10208000083AC0F0088051F8043B083A51F804CBF4
:10209000A0E80810F5E7121D5CBF51F8043B40F8BA
:1020A000043BAFF30080D20724BF11F8013B11F8C5
:1020B00001CB48BF11F8012B24BF00F8013B00F809
:1020C00001CB48BF00F8012B70474FF000020429F4
:1020D000C0F0128010F0030C00F04D80CCF1040C25
:1020E000BCF1020F18BF00F8012BA8BF20F8022B8B
:1020F000A1EB0C0100F03FB85FEAC17C24BF00F8FF
:10210000012B00F8012B48BF00F8012B704710B5D8
:10211000203AC0F00B80B1E81850203AA0E81850DF
:10212000B1E81850A0E81850BFF4F5AF5FEA027CA0
:1021300024BFB1E81850A0E8185044BF18C918C00F
:10214000BDE810405FEA827C24BF51F8043B40F8B0
:10215000043B08BF7047D20728BF31F8023B48BF95
:1021600011F8012B28BF20F8023B48BF00F8012BD3
:1021700070474FF0000200B513469446964620394A
:1021800022BFA0E80C50A0E80C50B1F12001BFF430
:10219000F7AF090728BFA0E80C5048BF0CC05DF896
:1021A00004EB890028BF40F8042B08BF704748BFE4
:1021B00020F8022B11F0804F18BF00F8012B704758
:1021C000010800010600302018100C060401000070
:1021D000020000000A0000001E0000001E000000B7
:1021E000600200005A0000002A0000000100000008
:1021F0003C0000003C0000000674010008D1010012
:10220000A0D5010001000000002000003004000003
:10221000320000002000000007050000040000005C
:10222000130000003C0000003C000000C00400005F
:10223000B30000005400000002000000770000001E
:10224000770000000CE802000FA2030040AB03007F
:1022500002000000004000005F0800006400000071
:10226000400000000E0500000700000025000000EF
:102270007700000077000000800900006501000081
:10228000A800000003000000EE000000EE000000C7
:1022900018D005001E440700805607000300000008
:1022A00000800000BE100000C80000008000000098
:1022B0001C0500000D00000049000000EE000000B9
:1022C000EE000000FF120000CA0200004F010000F3
:1022D00005000000DC010000DC01000030A00B0064
:1022E0003C880E00FFAC0E0005000000FFFF000060
:1022F0007B21000090010000FF0000003705000076
:102300001A00000092000000FF000000FF00000023
:10231000FE250000940500009E0200000A00000057
:10232000B8030000B8030000FFFF0F00FFFF0F001D
:10233000004C1D0002000000FEFF0100F6420000FC
:1023400020030000FE0100006E0A000000000000F3
:10235000000000000000000000000000000000007D
:10236000000000000000000000000000000000006D
:10237000000000000000000000000000000000005D
:10238000000000000000000000000000000000004D
:10239000000000000000000000000000000000003D
:1023A0000000000000000000FFFFFFFF0000000031
:1023B000000000000000000000000000000000001D
:1023C000000000000000000000000000000000000D
:1023D00000000000000000000000000000000000FD
:0423E00000000000F9
:0400000500220001D4
:00000001FF
