:020000040022D8
:100000002DE9F0412C480024264684602B4800F05E
:100010005FF82B4DAE62AE6300F0EFFE01F0FCFB2B
:10002000012708B1AF7001E000F0A6FF01F0A0F9D0
:1000300001F0D8FF00F03EFE4FF4C8006E63C0F838
:10004000947087601F484FF00F1101600168C94329
:100050004907FBD11C494FF4457008801B4941F208
:100060001E2008604FF44810016841F4805101607F
:100070000AE000F03BFD04466869012819D0022817
:1000800002D0002001F058FA002CF2D00C49287957
:10009000491C583008700A4800220121401C02F017
:1000A00049F8BDE8F041002201231146501E00F03E
:1000B00033B84020E6E7000000903200582C2200C0
:1000C0009C242200B80432006C153200AC8333004B
:1000D0008546704700470000F94909684968814230
:1000E00019D1F8480122C260F7490B6823F40013C4
:1000F0000B604FF41C13F54919604FF444134FF093
:100100005E011960F2490A604FF4A06101604FF08E
:1001100003018160FEE7704710B500204FF47A516B
:10012000401C8842FCD303B90022EA48016821F050
:100130002201016042F0010C6046FFF7CDFFBDE8EF
:1001400010406046FFF7C6BF10B500F050FF38B151
:1001500001F066FB20B101F0ECFA08B1012010BDFE
:10016000002010BD70B5DC4E0024A6F10F050DE097
:10017000A878315D0028286A204402D001F052FBA3
:1001800001E000F052FF002804D0641C686A844239
:10019000EEDB012070BD30B5002306E0C45CCD5C11
:1001A000AC4201D0002030BD5B1C9342F6DB012045
:1001B00030BD10B5C84C0F3C226A2AB1626A002AD1
:1001C00012DB032A10D002E00022C4E90802C24B6D
:1001D0009954216A1144814212D1521CBF491846D8
:1001E000FFF7D9FF50B901E0002010BD626ABB499A
:1001F000521CC91CB848FFF7CEFF08B1012000E02F
:1002000000200028606A03D0401C6062012010BDFD
:10021000002801DDFFF7A6FF4FF0FF306062E3E743
:1002200070B50D46AC4E044600F1807101200F3EC2
:10023000B1F1807F12D2B07129462046FFF7B9FF95
:10024000D0B9B07829460028204603D0BDE87040D8
:1002500001F0E8BABDE8704000F0E7BEA4F5A001E7
:10026000B1F5801F06D2B07129462046BDE8704026
:1002700001F093B825702078012070BD70B5054657
:100280000E462EE001F02DFFA0F13001092901D822
:1002900000010EE0A0F14101052903D80001A0F5FD
:1002A0005C7006E0A0F1610105291ED80001A0F5EF
:1002B000AE60C4B201F015FFA0F13001092901D8E8
:1002C0000C430BE0A0F14101052901D8373804E0C7
:1002D000A0F16101052908D85738044305F8014BFE
:1002E000761E002ECED1012070BD002070BD38B525
:1002F000794C44F620650F3C1CE02581E0784C28C1
:100300001DD001216846FFF7B9FF002816D060799B
:100310009DF8001008446071206BFFF781FF0028F2
:100320000CD0206B401C20636089401E6081606B94
:10033000401C606360890028DFD1012038BD01F0D6
:10034000D0FE8DF80000E2E710B501F0CAFEFC28EF
:1003500006D101F0C6FE604C0F3C0428608101D23A
:10036000002010BD01F0BDFE206301F0BAFE216B3C
:1003700041EA0020206301F0B4FE216B41EA004015
:10038000206301F0AEFE216B41EA006020636089CA
:10039000001F6081012010BD2DE9F04F814650A063
:1003A000ADF5017D0068884600260DF5007B4FF411
:1003B000007A80904C463DE04FF48051204601F099
:1003C0003FFD00282AD05F461BF8062051466846AC
:1003D00001F01BFF002504EB45205246694601F061
:1003E00018FD00281AD06D1C082DF4DBBB46002533
:1003F000574611223946684601F007FF04EB4520B5
:100400003A46694601F014FD002807D01BF8062083
:10041000002069460B5C934204D000200DF5017D5D
:10042000BDE8F08F401CB842F4DB6D1C082DE0DB0A
:1004300004F580544445BFD3761C042EBADB01205A
:10044000ECE708B56946274801F0DAF90098B0F101
:10045000A53F09D14FF400410020FFF79DFF1E4941
:100460000F3900B10120886108BD10B501F039FED7
:10047000FC283BD101F035FE062837D101F031FED2
:1004800001F02FFE01F02DFE134C0F3CE06101F056
:1004900028FEE16941EA0020E06101F022FEE16905
:1004A00041EA0040E06101F01CFEE16941EA0060C0
:1004B000E0610D49401E884218D2012010BD0000A5
:1004C00008ED00E00090320000E100E0FEE7FEE70A
:1004D0000404310020043600AB2422001023220043
:1004E00000FF5AA500FF0300FF117A000020E5E796
:1004F00000B589B084460E208DF8000008208DF8E4
:10050000010001208DF80200CC208DF80300FC20B2
:100510008DF8040000208DF805000CF180706B460A
:10052000B0F1807F0DD2FC4A9278002A0A4601463B
:1005300003F1060002D001F079F90CE000F09CFD17
:1005400009E0ACF5A000B0F5801F0ED20A46614666
:10055000981D01F0F9F8002805D001220A2168460B
:1005600001F0E8FD012009B000BD0020FBE710B557
:1005700001F0DFF80028A1D0FFF7F4FD00289DD09E
:1005800000F035FD20B101F04BF908B1012400E085
:100590000024E148807808B101F04CF920468DE74D
:1005A00070B5FFF7E4FF002808D001F09AFDFC28A1
:1005B00003D101F096FD082801D0002070BD01F0A4
:1005C00090FD044601F08DFD44EA002401F089FD10
:1005D00044EA004401F085FD44EA006501F081FD34
:1005E000044601F07EFD44EA002401F07AFD44EA6D
:1005F000004401F076FD44EA00612846FFF778FFE9
:10060000C0B270BD1CB50020019001F06AFDFF284A
:1006100054D101F066FD042850D101F062FD04467A
:1006200001F05FFD44EA002401F05BFD44EA004470
:1006300001F057FDB94944EA006088423ED101F01B
:10064000BEFCD0B303208DF80000BDF801004FF4CC
:1006500080516FF30B00ADF80100BDF8020020F4EB
:100660007F601030ADF80200002001F059FC20B38B
:10067000042269464FF4017001F0FAFBE8B14FF42F
:100680008070ADF804009DF806004FF4407120F032
:100690000F0009308DF80600BDF80200C0F3071006
:1006A0008200BDF80100C0F30B0001EB800001A93E
:1006B00001F0DEFB08B101201CBDFFE70020FBE7D5
:1006C00010B501F00EFDFF2803D101F00AFD01284D
:1006D00001D00020F2E69048807820B101F001FDC1
:1006E00001F09CF803E001F0FCFC00F064FC002841
:1006F000F0D00120E2E610F180720ED3864800238C
:1007000003625B1E4362807810B1104601F090B81E
:1007100069B94FF4004000F0EFBCA0F5A002B2F5BB
:10072000801F04D209B101F052B801F03DB8002099
:10073000704710B501F0D5FCFF2803D101F0D1FCC2
:10074000042801D00020B9E601F0CBFC724C2063F4
:1007500001F0C7FC216B41EA0020206301F0C1FCDD
:10076000216B41EA0040206301F0BBFC216B41EAB0
:10077000006001212063FFF7BEFF0028E3D00120C5
:100780009CE610B501F0ADFC634CFF2803D0207946
:1007900048B9012006E001F0A4FC042805D0207926
:1007A00008B902202071002088E601F09AFC20633D
:1007B00001F097FC216B41EA0020206301F091FCDD
:1007C000216B41EA0040206301F08BFC216B41EA80
:1007D000006053492063884202D14FF4A000206397
:1007E0000021FFF788FF0028DED0012066E64D4893
:1007F000016841F0600101604A480C300168C90796
:10080000FCD0704710B5FFF7B2FE00280AD001F007
:1008100068FCFC2805D101F064FC3F4C0428608191
:1008200001D000204AE601F05CFC206301F059FC95
:10083000216B41EA0020206301F053FC216B41EA67
:100840000040206301F04DFC216B012241EA006071
:10085000314920633C31E078C8702F4806213C3094
:1008600001F068FC00202063FFF7C1FF206BFFF759
:1008700033FC206B0123002142682263A06AFFF74A
:100880004BFC01201AE6F0B5234D274CADF5017D58
:10089000A869401C13D0254F4FF4007631463846E6
:1008A00001F0CEFA55223146684601F0AEFC7E9446
:1008B000A8697F9032466946384601F0AAFA0DF5DC
:1008C000017DF0BD30B50C46C1B00E218DF8001091
:1008D000FB2C02D9002041B030BD211D8DF8011044
:1008E00001218DF802104D218DF80310FC218DF8A7
:1008F000041000218DF8051000F180716B46B1F1F4
:10090000807F18D2044822468078002803F1060030
:100910000ED000F089FF18E09C242200EB00EC05CB
:10092000EFEEBEFC1C0436001257940800FE0300D4
:1009300000F029FB09E0A0F5A001B1F5801F07D266
:1009400001462246981D00F0F6FE0028C3D008E0BC
:10095000002104E05D1810F8012BAA71491CA14286
:10096000F8D30122A11D684601F0E4FB0120B2E7A3
:1009700010B5FFF7FCFD002808D001F0B2FBFC2801
:1009800003D101F0AEFB052801D0002096E501F06F
:10099000A8FBFC4C206301F0A4FB216B41EA002082
:1009A000206301F09EFB216B41EA0040206301F0CF
:1009B00098FB216B41EA0060206301F092FB014645
:1009C000206BBDE810407DE770B5EE4804212C3067
:1009D000FFF754FC00286ED0EA4CEA4D2C34207806
:1009E0006178A378E27801441344194469716881FD
:1009F000B4F80110002A49BA296371D00026022AEE
:100A000006D0042A18D0052A2AD0012A46D051E05F
:100A1000E9BB02284ED1DB4802212C30FFF72EFC27
:100A2000002848D0207861786B7942181A44000376
:100A30006A7140EA011011E049BB02283AD1D1485D
:100A400002212C30FFF71AFC28B92078617808447D
:100A5000697908446871208840BA0004A8631BE0E3
:100A6000A9B9042826D1C74804212C30FFF706FC79
:100A7000002820D020786178A2780144E0780244F0
:100A800011446A7911446971216809BA00E011E0E2
:100A900021F0FF010143A9636E8121E0014309D1E7
:100AA000B84801212C30FFF7E9FB002803D020785B
:100AB000FF2801D0002070BDFFF759FD0028FAD0B3
:100AC000B0492E20491C00220870AE480121401C6C
:100AD00001F030FB002201231146501EFFF71CFBE2
:100AE000A96B286B08442863012070BD2DE9F041F3
:100AF000A44E0224307840F001003070706910B1CB
:100B0000012806D012E001F0FFFAF0704C280CD05A
:100B10000CE001F002FB002847D001F0F5FAF0707C
:100B20004C2802D003207061BAE07461307800254F
:100B300000F0800030707581924C70693C3403285D
:100B400015D0C0B117D0FFF7FFFB00287ED0FFF70C
:100B5000CEFB00287BD001207061FFF7F5FA00285A
:100B600076D0F078E0700122062120467DE000205A
:100B700000F0E2FC7561F0780D284CD00A284AD0CC
:100B80003A2814D04D2817D04E281AD0CE281FD07E
:100B90005E2822D0E52825D0BE2828D0CC282BD00E
:100BA00018282ED0572834D00F20BDE8F081FFF749
:100BB0000BFF48BB0420F8E7FFF7DAFE20BB062056
:100BC000F3E7FFF760FEFFF71DFEE8B90720ECE74B
:100BD000FFF7D7FDC0B90820E7E7FFF7AAFD98B9EE
:100BE0000920E2E7FFF76CFD70B90A20DDE7FFF7A7
:100BF00009FD48B90B20D8E7FFF7D2FC20B90C203B
:100C0000D3E7FFF732FC10B1B06A28B108E00E203C
:100C1000CBE78020307043E0708908B1306BB06260
:100C20005849F078491C57281AD03A2817D0FF2184
:100C3000FC27CE281CD05E281AD0E52818D0BE2864
:100C400016D018281ED04D282AD002E02CE02DE026
:100C50002EE0CC2824D0ED2822D01520A5E72E2088
:100C60000870484800220121401C01F063FA17E097
:100C7000E07044482171012206213C3001F05AFA0B
:100C800027710DE0E0703F48012206213C3001F061
:100C900051FAF06901F010FA20B1F561FFF7D1FBCC
:100CA000002082E7142080E705207EE710207CE703
:100CB00011207AE730B5344B344C0021084600222D
:100CC000C50702D083EA500000E04008521C082A01
:100CD000F6D344F82100491CFF29EFD930BD4FF469
:100CE00048114FF0050C0968C90401D54FF00A0CF2
:100CF000002305E062461100A2F10102FBD15B1C5A
:100D00008342F7D37047224900B503204860002290
:100D100011461046C0F10F0342FA03F303F001033A
:100D200083401943401C1028F4DB4FF4481017226D
:100D3000026441649620FFF7D2FF1648016821F053
:100D4000300141F01001016000BD13490A6842F012
:100D500080020A600A6822F080020A600C494FF0A3
:100D600000024A600D4B4B610A640D4ACA600D4A8D
:100D7000B2FBF0F040F0807088604FF4641088613E
:100D8000704700009C2422002083B8ED3825220003
:100D9000001032006081330004013200171000019E
:100DA0000000020450C97FBB70B54FF44E14D4F854
:100DB0006001C00619D445F6C050FFF7C6FFFFF723
:100DC000A2FF4FF44816306820F00F056148016813
:100DD00041F0070101600A20FFF781FF45F48050D0
:100DE00030604FF4E13001F067F90020C4F83801B9
:100DF000C4F83C01C4F8D80270BD574930B4002093
:100E0000087101230B7044F620620A8101F10C0283
:100E100040241470302454703124947030320E24E5
:100E20001470042454709370FC23137150714B4A56
:100E3000887088711070421EC1E908024849087024
:100E400030BCB1E74FF48012904209D36FF4001127
:100E5000444B0144994203D3A0F5A001914206D22C
:100E600028B1411C03D0C00701D0012088E7002031
:100E700086E73E4910B53C4808603749087818B104
:100E800044F62060088125E40889401E0004000C17
:100E90000881F8D130495A20491C002208702E4898
:100EA0000121401C01F046F900220123BDE8104059
:100EB0001146501EFFF730B970B5054600244FF4B7
:100EC000FA6606E00020401CB042FCD3FFF7D1FFD9
:100ED000641CAC42F6D370BD4FF44812106800F0A9
:100EE0000F014FF44E10D0F86031C3F30113012B02
:100EF00024D0D0F8600110F0300F02D04BF68030D3
:100F000001E045F6C0501268D20414D4052913D26A
:100F1000DFE801F0030507090B00022106E00321C9
:100F200004E0042102E0062100E008210844A0F1C9
:100F3000010090FBF1F023E7012021E71068C004D5
:100F400001D50B481CE70B48405C4FF47A7110FB4D
:100F500001F015E7B80432009C242200F824220096
:100F6000E0242200FEDF01000024F40000903200A3
:100F7000007701001623220010B500F0FEF87A4930
:100F80000020087010BD38B50546080A8DF800002D
:100F900014468DF80110A0220221684600F0CEF917
:100FA000012806D1A0222146284600F0D0F90128C8
:100FB00000D0002038BD08B500F0F7F8012200216C
:100FC0006846FFF7E0FF08BD70B500244FF4FA65EE
:100FD00004E0641CAC4201D1002070BDA0220221BB
:100FE000002000F0ABF90328F3D0012070BD3EB51E
:100FF0005D4C2178B9B160680223020A8DF808209F
:101000008DF809000122A020CDE9000202AA04F116
:10101000080000F04CF903284FF0000002D02070C7
:10102000FFF7D2FF3EBD01203EBD2DE9F0414E4EFF
:1010300004460D463078002740B171680844A0424C
:1010400005D0FFF7D4FF002814D0377074604649EC
:10105000307808310D54401CC0B2307071680144C2
:10106000090701D0062804D1FFF7C1FF002801D0ED
:1010700037700120BDE8F0812DE9FE430746080ADC
:101080008DF8000015468DF801104FF0FF34A022B6
:101090000221684600F052F9012802D00020BDE884
:1010A000FE830DF10408DFF8C49019E0082D01D982
:1010B000082000E02846C6B2A022314601A800F070
:1010C00046F9002041464A4607E00B5C6340DBB22C
:1010D000401C52F8233083EA1424B042F5D3AD1BF0
:1010E000002DE3D1E0433870010A7970010CB9702A
:1010F000000EF8700120D2E72DE9F84F0546FF21D8
:101100000020FFF792FF012444F62066184F4FF0AD
:10111000FF08A1464FF0CE0A20E02046641C0021C3
:10112000FFF783FF00281CD0600600D13E80A00599
:1011300014D1012200216846FFF725FF002810D0B6
:101140009DF8000060B18DF800808DF801908DF859
:1011500002A001220321684600F0ECFFAC42DCD380
:101160000120BDE8F88F0000E0242200382522008D
:10117000A4242200401EFDD270477948816921F0E5
:10118000770181610168774A01EA0201764A41EA02
:10119000020101604FF459114FF00000C86173491A
:1011A00048704FF010000870704770490A7822F0BC
:1011B000300202430A70704710B54FF45911C869E4
:1011C000C0B2820717D50022CA61400701D50320AB
:1011D00010BD664AD07860B10020536806E001EB8C
:1011E000800494F830411C54401CC0B2D478A04212
:1011F000F5D3012010BD002010BD10B5002404E07F
:10120000641C600701D1FFF734FEFFF7D5FF00280B
:10121000F6D010BD10B54FF45910C069C00705D005
:10122000FFF7EBFF514988700120487010BDF0B501
:101230004FF45916DDE9054C4FF0000EC6F81CE0DE
:10124000346053B1002406E0155D06EB8407641C8E
:1012500087F83050E4B29C42F6D35FEA0C02DFF824
:101260000CC105D0CA18D4B28CF803E0002213E0F8
:10127000CCF804008CF803100C4601207BB143EA43
:101280000110C4B203200AE0D718855C06EB87077B
:10129000521C87F83050D2B28A42F5D300209CF815
:1012A000001074610843B0610120F061F0BD2DE9C8
:1012B000F04380462DED028B83B00D4616461F4647
:1012C0009DED0C8ADDF83490FFF7A4FF2EE0082195
:1012D000B9F1010F02D1C7F10800C1B28D4200D2AD
:1012E000E9B28DED008A0C463B4632464046CDF8C9
:1012F0000490FFF79CFFFFF780FF012819D1281BFE
:10130000A04485B297B1781EC0B2315C2144C9B205
:101310003154A1420AD207E0401EC0B2315C491CE0
:1013200011F0FF01315401D10028F5D1002DCED1AB
:10133000012003B0BDEC028BBDE8F0831CB5012396
:10134000CDE9002300231A46FFF7B1FF1CBD1CB5F1
:101350000023CDE900231A46FFF7A9FF1CBD0000BA
:1013600074003200FFFFC0C000000A0AF02422000F
:1013700010B50020FB4A01461154401CFF28FBD940
:10138000F94C217000F0EBFD2063E062BDE81040F5
:1013900000F015BEC0F3D30070472DE9F05FA0F553
:1013A000A007DFF8C4930E464846D9F804107D0A1A
:1013B0000A460069DFF8B4B3C7F308044FEA1738E8
:1013C000491C4FF0010A0BD0AA4240D1A8B30BF838
:1013D0000460D9F82000844201D9C9F82040A8E06F
:1013E0004FF4007198B1E14800F017FF0BF804606A
:1013F000C9F82040C9F80CA0C9F81850C9F828400D
:10140000D84CC9F8045014F8080070B191E0D848DD
:1014100000F003FFD6480655C9F81C40C9F808A0DB
:10142000C9F81450C9F82440EAE7380B000300F06B
:1014300089FCFF2004F808007BE0FFE7CC48065554
:10144000D9F81C00844274D9C9F81C4071E050B12D
:10145000D9F80800F0B3D9F81420C24FC2F3D30072
:10146000385CC0B341E0D9F80C0030B3D9F818208B
:10147000BC4FC2F3D300385C40B9500200F062FCAC
:10148000D9F81800FF22C0F3D3003A54D9F820103D
:10149000D9F82800D9F81830091A091D21F00302DB
:1014A0000BEB000100EB432000F0B3FC002841D01F
:1014B0004FF40071AD4800F0B0FE0BF80460C9F8BD
:1014C0002040C9F80CA0C9F810A0C9F81850C9F8F4
:1014D00028402CE020E0FFE7500200F033FCD9F870
:1014E0001400FF22C0F3D3003A54D9F81C10D9F8E5
:1014F0002400D9F81430091A091D21F003029C496F
:10150000014400EB432000F084FC002812D04FF48B
:101510000071974800F081FE95480655C9F81C40B7
:10152000C9F808A00020C9F82440C9E90405C9F891
:1015300004500120BDE8F09F2DE9F05F8A4EC01CE9
:1015400020F00304DFF824B2864F30694FF0010821
:101550004FF0030A4FF0FF09002548B1B06800289A
:1015600073D07069C0F3D301795C00295BD062E06D
:10157000F06888B3B069C0F3D301795C39B940022F
:1015800000F0E0FBB069C0F3D30007F8009044B16D
:10159000B16A306A6218824209D3401A401CF56071
:1015A00008E0F560B16A306A401A401C02E020464B
:1015B000C6F80CA0C01C20F00302B06AB3690BEBA4
:1015C000000100EB432000F024FC00287ED0F068EE
:1015D00020B1B06A2044B06214B17CE0306AFAE70E
:1015E000B068002877D07069C0F3D301795C39B94D
:1015F000400200F0A7FB7069C0F3D30007F8009029
:10160000F169706A7369091A091D21F003025849CA
:10161000014400EB432000F0FCFB00288AD0B560B9
:10162000F561756254E0400200F08CFB7069C0F314
:10163000D30007F800904CB1716AF06962188242D9
:101640000AD3401A401CB56009E01AE0B560716A1F
:10165000F069401A401C02E02046C6F808A0C01CF1
:1016600020F003024249706A7369014400EB432091
:1016700000F0CFFB002829D0B06820B1706A204468
:10168000706214B127E0F069FAE7F06818B3B06946
:10169000C0F3D301795C39B9400200F053FBB06963
:1016A000C0F3D30007F80090316AB06AB369091A31
:1016B000091D21F003020BEB000100EB432000F0B9
:1016C000A8FB002802D0F560356200E004E0B562B6
:1016D0004FF0FF30706040462CE770B505460E466F
:1016E00002EB4200234901E0401E0ED00A6A1207B5
:1016F000FAD4052400F06AFA002806D001E0641E3E
:1017000004D02868B042FAD1012070BD002070BD1D
:1017100070B504460D4600F063FA16488461C56151
:10172000016A0907FCD429462046BDE870406422BE
:10173000D3E701207047034610B5C1F313001946E3
:1017400000F076FBC0B210BD2DE9F04106460D4613
:1017500017464FF0FF3400F039FA002822D000205D
:10176000054914E05C2C2200F82422005C2F2200A2
:101770005C2D2200004040003825220015F8012B86
:101780006240D2B2401C51F8222082EA1424B842AE
:10179000F4D3E0433070010A7170010CB170000E97
:1017A000F0700120BDE8F08110B51949002000F06B
:1017B000F4FA50B10020002806D00021154BFF227A
:1017C0005A54491CFF29FBD910BD0120F3E710B57D
:1017D0000446C0F3130000F0B5FA78B10020C4F35A
:1017E0000731002809D00B4A01F0070402EBD102AF
:1017F00001211378A1400B43137010BD0120EEE7C7
:1018000010B5C0F31300042200F012FBC0B210BDEB
:10181000FCFF0F005C2C2200002070470120704765
:10182000012070470020704700207047002070475B
:1018300000207047012070475A2801D25A2002E048
:101840007D2800D97D20F8494A6C22F001024A64C3
:101850000A68A0F15A0022F03F0242EA00020A6040
:10186000486820F007004860486C40F00100486478
:101870007047EE490A6802430A607047EB490A68FC
:1018800082430A607047E94A916821F003010143ED
:1018900091607047E54A9168000721F0F00141EA44
:1018A000106090607047E148816880687047DF4849
:1018B000816880687047DD4A91684FF0E06321F0ED
:1018C000E06103EA0060084390607047D74A91687E
:1018D0004FF0405321F0405103EA007008439060FC
:1018E0007047D24A916C00F0070021F007010843CD
:1018F00090647047CD49886C20F00F008864704771
:10190000CA4AD16CC0F30D0001F0C0210843D06475
:101910007047C64A106521F0784050657047C34A49
:101920009065D1657047C14A106651667047BF49DE
:10193000C0B2C8607047BD49C0B208617047BB49BA
:1019400000F0030008627047B84A9169C1F31301BF
:1019500041EA005090617047D0F800C099402CEAED
:10196000020C41EA0C01016070474FF4002085E74A
:10197000AE4A116821F00F01014311607047AC4A73
:1019800009B1506003E05068401E506001D0002053
:101990007047012070472DE9F043052802D9002047
:1019A000BDE8F08300EB4001A24DA04E01EB001416
:1019B000243655F824100023FF223046FFF7CCFFD1
:1019C00005EB840408234FF47F4230466168FFF73B
:1019D000C3FF10234FF47F023046A168FFF7BCFF1E
:1019E0004FF07F4518232A463046E168FFF7B4FFE1
:1019F0004FF6FF78361D0023424630462169FFF737
:101A0000ABFF14232A1130466169FFF7A5FF40F6AA
:101A1000FF79361D00234A463046A169FFF79CFF37
:101A20000C234FF470423046E169FFF795FF4FEA0F
:101A3000094710233A463046216AFFF78DFF361DCD
:101A400000234A463046616AFFF786FF0C232A13BB
:101A50003046A16AFFF780FF0023774A301DE16A14
:101A6000FFF77AFF714E00233836EA433046216B88
:101A7000FFF772FF18232A463046616BFFF76CFFB1
:101A800000235A1E301DA16BFFF766FF674D002330
:101A9000403542462846E16BFFF75EFF10233A4689
:101AA0002846216CFFF758FF00234A46281D616C29
:101AB000FFF752FF5D48002341F6FF724C30A16CE6
:101AC000FFF74AFF01206BE759495C488A6890425A
:101AD00001D101207047886059490A6842F4002208
:101AE0000A600A6842F008020A6050498A6842F0B7
:101AF00001028A6045F6C0525249904206DCB0EBC2
:101B0000A2000FD0B0EBA20007D108E0A1F5BA41C6
:101B1000C03906D0A1F53B418039042002E0012004
:101B200000E0032037E730B5414C2078012828D069
:101B30007820FFF781FEFFF7C7FF4FF40020FFF783
:101B40009DFE3A4B5868000312D40B20FFF710FF9C
:101B50003D4D01212846FFF712FF04E000212846F1
:101B6000FFF70DFF10B958680003F7D50D2001E00D
:101B7000207808B9FFF7FCFE012020705868C0F3F8
:101B8000C04030BD2A4810B5007801281BD008207D
:101B9000FFF7EEFE2C4C01212046FFF7F0FE234B11
:101BA00004E000212046FFF7EAFE10B958688007DC
:101BB000F7D10020FFF7DCFE7820FFF73DFE5868E4
:101BC000800701D0002010BD012010BD00B5FFF737
:101BD000AAFF002803D00120FFF7CAFE012000BDA4
:101BE00000B5FFF7A0FF002806D00220FFF7C0FED7
:101BF0000E4900200862012000BD70B5044615465C
:101C000028440E46B0F5801F02D94FF0FF3070BD5A
:101C1000E5B1FFF7DBFFE0B12A4604F5A00130464D
:101C200000F0AEFA002070BD540064000040400097
:101C30002C25220020232200FFFF0F000077010047
:101C4000B804320040190100004C1D006FF009007B
:101C5000E9E76FF00300E6E770B504460E46154667
:101C6000800702D06FF00100DDE7A80702D06FF017
:101C70000200D8E76019B0F5801F02D94FF0FF309D
:101C8000D1E755B1FFF7A2FF50B12A4604F5A001F4
:101C9000304600F075FA0020C5E76FF00900C2E792
:101CA0006FF00300BFE7F0B506460C461546800707
:101CB00002D06FF00100F0BDA80702D06FF0020063
:101CC000F0BD7019B0F5801F02D94FF0FF30F0BDA4
:101CD0003DB1FFF785FF38B10023DFF8F8C2BE4FF2
:101CE00020E06FF00900F0BD6FF00400F0BDF018C7
:101CF000B861E178206861F31F60F86101216046F6
:101D0000FFF73DFE09E000216046FFF738FE20B1F5
:101D1000FFF75CFF6FF00600F0BD386A0007F2D4F1
:101D20001B1D241DAB42E2D3FFF750FF0020F0BD86
:101D300000B5FFF7F8FE002803D00320FFF718FED8
:101D4000012000BD10B5010502D06FF0070010BDE5
:101D5000B0F5801F02D94FF0FF3010BD9E4C60617E
:101D6000FFF7E6FF28B19B4B01211846FFF707FE5E
:101D70000CE06FF0050010BD00211846FFF7FFFDD5
:101D800020B1FFF723FF6FF0060010BD6068400729
:101D9000F2D4FFF71BFF002010BD30B5044609B197
:101DA000651809E06FF0090030BD2046FFF7CAFF53
:101DB0000028F9D104F58054AC42F6D3002030BDA0
:101DC000864810B5007801280CD0FFF7ACFE60B152
:101DD0000C20FFF7CDFD01217E48FFF7D0FD804CA0
:101DE0007D4B0FE06FF00A0010BD6FF0080010BDD2
:101DF00000212046FFF7C3FD20B1FFF7E7FE6FF09B
:101E0000060010BD58684007F2D4FFF7DFFE00203F
:101E100010BD10B5FFF747FF044670480078012851
:101E200001D1FFF7D3FE0CB1002010BD012010BD81
:101E300010B5FFF7E2FE08B1002010BD012010BD73
:101E400010B5FFF7AAFF044664480078012801D1C5
:101E5000FFF7BCFE0CB1002010BD012010BD0844EE
:101E6000B0F5805F02D94FF0FF3070470020704717
:101E700010B58C46044613461146FFF7F0FF08B133
:101E8000002010BD1020FFF7F4FC1A4661462046E2
:101E9000FFF709FF40B100241020FFF7EFFC4F4986
:101EA0000978012902D003E00124F5E7FFF78EFE4F
:101EB000204610BD10B50C46844613461146FFF768
:101EC000CEFF08B1002010BD1020FFF7D2FC1A464B
:101ED00021466046FFF791FE28B100231020FFF74E
:101EE000CDFC184610BD0123F8E710B50C4684461A
:101EF00013461146FFF7B3FF08B1002010BD2020A4
:101F0000FFF7B7FC1A4621466046FFF776FE28B178
:101F100000232020FFF7B2FC184610BD0123F8E78C
:101F200010B503460C46FFF79AFF08B1002010BD1C
:101F30001020FFF79EFC21461846FFF72EFF40B108
:101F400000241020FFF79AFC24490978012902D0C7
:101F500003E00124F5E7FFF739FE204610BD4FF4FA
:101F6000A00070471CB50822694640F60460FFF7E0
:101F7000BCFF0098C107184805D10099C1F347017B
:101F800041F48071C1600199C90705D10199C1F37C
:101F9000470141F4807101611CBD10B54020FFF77D
:101FA00068FC0E4800218160007808B1012010BD56
:101FB000FFF78AFD0446FFF709FE204010BD10B56B
:101FC000FFF7EBFF0549044600200870FFF7CAFF42
:101FD000204610BD004C1D00004040002C25220072
:101FE000003075006248016841F0400101600168FD
:101FF00041F020010160016841F0020101605C498B
:10200000002010310860704730B55A4CA04201D80A
:10201000240100E0584CB4FBF0F010280CDBC4178E
:1020200000EB1474251124F00F04041B186820F031
:10203000080040F0800006E005461868002420F003
:10204000800040F008001860C5F58070106004EB57
:10205000D4704010221A42EA0010086030BD444992
:10206000086820F023020A6070471EB5404C2268C1
:1020700001F0230122F023020A4300926B4602AAD8
:1020800001A9FFF7C1FF3A4902981C390860091FEE
:1020900001980860009820601EBD4FF4481101228D
:1020A000C1F8BC20334B984201D8022000E0012047
:1020B00041F8B40F4A60704784462D4810B5001DA2
:1020C0000168C1F381010229FAD1FFF7C8FF044674
:1020D0006046FFF7E2FF21466046FFF7C6FF01209A
:1020E00010BD70B5224901200C31086008254FF45D
:1020F0005814FEF7BEFEC4F88450D4F884000007DC
:10210000F7D4E069C0B270BD10B5FFF7EAFF01284F
:1021100002D1BDE81040E4E710BD154901200C31A3
:102120000860164808210160006840F3C00000F113
:102130000100704730B502244FF45813C3F88440AF
:10214000D3F88450AD07F9D52AB10425DD6102E04A
:1021500010F8012BDA610A00A1F1010189B2F7D16F
:10216000C3F88440D3F884008007F9D530BD00005F
:102170002004360060E31600006CDC0284003600A8
:10218000032A40F2308010F0030C00F0158011F8A3
:10219000013BBCF1020F624498BF11F801CB00F87B
:1021A000013B38BF11F8013BA2F1040298BF00F8CF
:1021B00001CB38BF00F8013B11F0030300F04F8062
:1021C000083AC0F0088051F8043B083A51F804CBB3
:1021D000A0E80810F5E7121D5CBF51F8043B40F879
:1021E000043BAFF30080D20724BF11F8013B11F884
:1021F00001CB48BF11F8012B24BF00F8013B00F8C8
:1022000001CB48BF00F8012B704702F0FF0343EAFF
:10221000032242EA024200F002B84FF00002042911
:10222000C0F0128010F0030C00F04D80CCF1040CD3
:10223000BCF1020F18BF00F8012BA8BF20F8022B39
:10224000A1EB0C0100F03FB85FEAC17C24BF00F8AD
:10225000012B00F8012B48BF00F8012B704710B587
:10226000203AC0F00B80B1E81850203AA0E818508E
:10227000B1E81850A0E81850BFF4F5AF5FEA027C4F
:1022800024BFB1E81850A0E8185044BF18C918C0BE
:10229000BDE810405FEA827C24BF51F8043B40F85F
:1022A000043B08BF7047D20728BF31F8023B48BF44
:1022B00011F8012B28BF20F8023B48BF00F8012B82
:1022C00070474FF0000200B51346944696462039F9
:1022D00022BFA0E80C50A0E80C50B1F12001BFF4DF
:1022E000F7AF090728BFA0E80C5048BF0CC05DF845
:1022F00004EB890028BF40F8042B08BF704748BF93
:1023000020F8022B11F0804F18BF00F8012B704706
:10231000010800010600302018100C06040100001E
:10232000020000000A0000001E0000001E00000065
:10233000600200005A0000002A00000001000000B6
:102340003C0000003C0000000674010008D10100C0
:10235000A0D50100010000000020000030040000B2
:10236000320000002000000007050000040000000B
:10237000130000003C0000003C000000C00400000E
:10238000B3000000540000000200000077000000CD
:10239000770000000CE802000FA2030040AB03002E
:1023A00002000000004000005F0800006400000020
:1023B000400000000E05000007000000250000009E
:1023C0007700000077000000800900006501000030
:1023D000A800000003000000EE000000EE00000076
:1023E00018D005001E4407008056070003000000B7
:1023F00000800000BE100000C80000008000000047
:102400001C0500000D00000049000000EE00000067
:10241000EE000000FF120000CA0200004F010000A1
:1024200005000000DC010000DC01000030A00B0012
:102430003C880E00FFAC0E0005000000FFFF00000E
:102440007B21000090010000FF0000003705000024
:102450001A00000092000000FF000000FF000000D2
:10246000FE250000940500009E0200000A00000006
:10247000B8030000B8030000FFFF0F00FFFF0F00CC
:10248000004C1D0002000000FEFF0100F6420000AB
:1024900020030000FE0100006E0A000000000000A2
:1024A000000000000000000000000000000000002C
:1024B00000000000FFFFFFFF000000000000000020
:1024C000000000000000000000000000000000000C
:1024D00000000000000000000000000000000000FC
:1024E00000000000000000000000000000000000EC
:1024F000000000000000000000000000FFFFFFFFE0
:1025000000000000000000000000000000000000CB
:1025100000000000000000000000000000000000BB
:1025200000000000000000000000000000000000AB
:082530000000000000000000A3
:0400000500220001D4
:00000001FF
